{
  "transactions": [
    {
      "hash": "0xf59b705d73ab1b3b32a7cb6ec1ab5f9884077f1beeef7e8e10ade040dd6392f7",
      "transactionType": "CALL",
      "contractName": null,
      "contractAddress": "0xb1b65d1b309e677352478eb11f65d16b72f176ad",
      "function": "updateTree((bytes32,bytes32))",
      "arguments": [
        "(0xa5c978ba505d2e1699553fb1b86380494dbe9f5152f962dd494179351d9480d2, 0x516d4578616d706c654861736800000000000000000000000000000000000000)"
      ],
      "transaction": {
        "from": "0x2b30bc9f81f919b01a09d5a3de574b15eaf2c3bc",
        "to": "0xb1b65d1b309e677352478eb11f65d16b72f176ad",
        "gas": "0x18eb8",
        "value": "0x0",
        "input": "0xd9c98087a5c978ba505d2e1699553fb1b86380494dbe9f5152f962dd494179351d9480d2516d4578616d706c654861736800000000000000000000000000000000000000",
        "nonce": "0x0",
        "chainId": "0x190a85c0"
      },
      "additionalContracts": [],
      "isFixedGasLimit": false
    }
  ],
  "receipts": [
    {
      "status": "0x1",
      "cumulativeGasUsed": "0x279fe",
      "logs": [
        {
          "address": "0xb1b65d1b309e677352478eb11f65d16b72f176ad",
          "topics": [
            "0x39f3c4d5c2bbcbf0e3945f22aa618f4e654952eaafcdaa119f0ef12dfce4f2f3"
          ],
          "data": "0xa5c978ba505d2e1699553fb1b86380494dbe9f5152f962dd494179351d9480d2516d4578616d706c654861736800000000000000000000000000000000000000",
          "blockHash": "0x4bd1f82d4fb482e69a2f374b6b15277ccdfc5357ad70634dd5d4a48229146d30",
          "blockNumber": "0x18d08d",
          "transactionHash": "0xf59b705d73ab1b3b32a7cb6ec1ab5f9884077f1beeef7e8e10ade040dd6392f7",
          "transactionIndex": "0x2",
          "logIndex": "0x0",
          "removed": false
        }
      ],
      "logsBloom": "0x00000000000000000200000010000000000000000000000000000000000000000000000001000000000000000000000000000000000000000000000000000000000000000000000000000000000000000000000000000000000000000000000000000000000000000000000000000000000000800000000000000000000000000000000000000000000000000000000000000000000000000000000000000000000000000000000000000000000000000000010000000000000000000000000000000800000000000000000000000000000000000000000000000000000000000000000000000000000000000000000000000000000000000000000000000000",
      "type": "0x2",
      "transactionHash": "0xf59b705d73ab1b3b32a7cb6ec1ab5f9884077f1beeef7e8e10ade040dd6392f7",
      "transactionIndex": "0x2",
      "blockHash": "0x4bd1f82d4fb482e69a2f374b6b15277ccdfc5357ad70634dd5d4a48229146d30",
      "blockNumber": "0x18d08d",
      "gasUsed": "0x110a1",
      "effectiveGasPrice": "0xfd",
      "from": "0x2b30bc9f81f919b01a09d5a3de574b15eaf2c3bc",
      "to": "0xb1b65d1b309e677352478eb11f65d16b72f176ad",
      "contractAddress": null,
      "l1BaseFeeScalar": "0x558",
      "l1BlobBaseFee": "0x1",
      "l1BlobBaseFeeScalar": "0xc5fc5",
      "l1Fee": "0x363708a",
      "l1GasPrice": "0x18c4ec8",
      "l1GasUsed": "0x640"
    }
  ],
  "libraries": [],
  "pending": [],
  "returns": {},
  "timestamp": 1742191660,
  "chain": 420120000,
  "commit": "f3057ee"
}