{
  "transactions": [
    {
      "hash": "0x4ac760ca2ca650f6a783d81a5748c9db99571950fb9fcf41f6fa14d1944fe849",
      "transactionType": "CALL",
      "contractName": null,
      "contractAddress": "0xb1b65d1b309e677352478eb11f65d16b72f176ad",
      "function": "updateTree((bytes32,bytes32))",
      "arguments": [
        "(0x57cb78598e7ff7836478791c619723241bfbafeba77f4eba8d257027ea80803f, 0x516d4578616d706c654861736800000000000000000000000000000000000000)"
      ],
      "transaction": {
        "from": "0x2b30bc9f81f919b01a09d5a3de574b15eaf2c3bc",
        "to": "0xb1b65d1b309e677352478eb11f65d16b72f176ad",
        "gas": "0xbb57",
        "value": "0x0",
        "input": "0xd9c9808757cb78598e7ff7836478791c619723241bfbafeba77f4eba8d257027ea80803f516d4578616d706c654861736800000000000000000000000000000000000000",
        "nonce": "0x2",
        "chainId": "0x190a85c0"
      },
      "additionalContracts": [],
      "isFixedGasLimit": false
    }
  ],
  "receipts": [
    {
      "status": "0x1",
      "cumulativeGasUsed": "0x1e982",
      "logs": [
        {
          "address": "0xb1b65d1b309e677352478eb11f65d16b72f176ad",
          "topics": [
            "0x39f3c4d5c2bbcbf0e3945f22aa618f4e654952eaafcdaa119f0ef12dfce4f2f3"
          ],
          "data": "0x57cb78598e7ff7836478791c619723241bfbafeba77f4eba8d257027ea80803f516d4578616d706c654861736800000000000000000000000000000000000000",
          "blockHash": "0x6c80332dda1bcd7f6ac31fb640065c6074a44362074c8d8a3bd0239046c1612e",
          "blockNumber": "0x18e182",
          "transactionHash": "0x4ac760ca2ca650f6a783d81a5748c9db99571950fb9fcf41f6fa14d1944fe849",
          "transactionIndex": "0x2",
          "logIndex": "0x0",
          "removed": false
        }
      ],
      "logsBloom": "0x00000000000000000200000010000000000000000000000000000000000000000000000001000000000000000000000000000000000000000000000000000000000000000000000000000000000000000000000000000000000000000000000000000000000000000000000000000000000000800000000000000000000000000000000000000000000000000000000000000000000000000000000000000000000000000000000000000000000000000000010000000000000000000000000000000800000000000000000000000000000000000000000000000000000000000000000000000000000000000000000000000000000000000000000000000000",
      "type": "0x2",
      "transactionHash": "0x4ac760ca2ca650f6a783d81a5748c9db99571950fb9fcf41f6fa14d1944fe849",
      "transactionIndex": "0x2",
      "blockHash": "0x6c80332dda1bcd7f6ac31fb640065c6074a44362074c8d8a3bd0239046c1612e",
      "blockNumber": "0x18e182",
      "gasUsed": "0x8019",
      "effectiveGasPrice": "0xfd",
      "from": "0x2b30bc9f81f919b01a09d5a3de574b15eaf2c3bc",
      "to": "0xb1b65d1b309e677352478eb11f65d16b72f176ad",
      "contractAddress": null,
      "l1BaseFeeScalar": "0x558",
      "l1BlobBaseFee": "0x1",
      "l1BlobBaseFeeScalar": "0xc5fc5",
      "l1Fee": "0x88d72a1bf",
      "l1GasPrice": "0x3e84bc364",
      "l1GasUsed": "0x640"
    }
  ],
  "libraries": [],
  "pending": [],
  "returns": {},
  "timestamp": 1742200341,
  "chain": 420120000,
  "commit": "f3057ee"
}