{
  "transactions": [
    {
      "hash": "0xa42461617f9799031ed18690c86334bc0e41e51e1fc1fe6de72c990933eeec7c",
      "transactionType": "CALL",
      "contractName": null,
      "contractAddress": "0xb1b65d1b309e677352478eb11f65d16b72f176ad",
      "function": "updateTree((bytes32,bytes32))",
      "arguments": [
        "(0xe54b28f216ad90809be86bc7e52824a213a64c7f823e4e9207748f10bd94ef6d, 0x516d4578616d706c654861736800000000000000000000000000000000000000)"
      ],
      "transaction": {
        "from": "0x2b30bc9f81f919b01a09d5a3de574b15eaf2c3bc",
        "to": "0xb1b65d1b309e677352478eb11f65d16b72f176ad",
        "gas": "0xbb57",
        "value": "0x0",
        "input": "0xd9c98087e54b28f216ad90809be86bc7e52824a213a64c7f823e4e9207748f10bd94ef6d516d4578616d706c654861736800000000000000000000000000000000000000",
        "nonce": "0x1",
        "chainId": "0x190a85c0"
      },
      "additionalContracts": [],
      "isFixedGasLimit": false
    }
  ],
  "receipts": [
    {
      "status": "0x1",
      "cumulativeGasUsed": "0x1e976",
      "logs": [
        {
          "address": "0xb1b65d1b309e677352478eb11f65d16b72f176ad",
          "topics": [
            "0x39f3c4d5c2bbcbf0e3945f22aa618f4e654952eaafcdaa119f0ef12dfce4f2f3"
          ],
          "data": "0xe54b28f216ad90809be86bc7e52824a213a64c7f823e4e9207748f10bd94ef6d516d4578616d706c654861736800000000000000000000000000000000000000",
          "blockHash": "0x46a5f136fa940d24b224a981e88f868d73594b3d8754056c11f2868794c3f5cc",
          "blockNumber": "0x18d743",
          "transactionHash": "0xa42461617f9799031ed18690c86334bc0e41e51e1fc1fe6de72c990933eeec7c",
          "transactionIndex": "0x2",
          "logIndex": "0x0",
          "removed": false
        }
      ],
      "logsBloom": "0x00000000000000000200000010000000000000000000000000000000000000000000000001000000000000000000000000000000000000000000000000000000000000000000000000000000000000000000000000000000000000000000000000000000000000000000000000000000000000800000000000000000000000000000000000000000000000000000000000000000000000000000000000000000000000000000000000000000000000000000010000000000000000000000000000000800000000000000000000000000000000000000000000000000000000000000000000000000000000000000000000000000000000000000000000000000",
      "type": "0x2",
      "transactionHash": "0xa42461617f9799031ed18690c86334bc0e41e51e1fc1fe6de72c990933eeec7c",
      "transactionIndex": "0x2",
      "blockHash": "0x46a5f136fa940d24b224a981e88f868d73594b3d8754056c11f2868794c3f5cc",
      "blockNumber": "0x18d743",
      "gasUsed": "0x8019",
      "effectiveGasPrice": "0xfd",
      "from": "0x2b30bc9f81f919b01a09d5a3de574b15eaf2c3bc",
      "to": "0xb1b65d1b309e677352478eb11f65d16b72f176ad",
      "contractAddress": null,
      "l1BaseFeeScalar": "0x558",
      "l1BlobBaseFee": "0x1",
      "l1BlobBaseFeeScalar": "0xc5fc5",
      "l1Fee": "0x21f5f407",
      "l1GasPrice": "0xf84047e",
      "l1GasUsed": "0x640"
    }
  ],
  "libraries": [],
  "pending": [],
  "returns": {},
  "timestamp": 1742195095,
  "chain": 420120000,
  "commit": "f3057ee"
}