{
  "transactions": [
    {
      "hash": "0xff038ed1b9bf59957f5f39c1a8fc6bc5d7a420f4689bf72ff34193e6ea628846",
      "transactionType": "CALL",
      "contractName": null,
      "contractAddress": "0xb1b65d1b309e677352478eb11f65d16b72f176ad",
      "function": "updateTree((bytes32,bytes32))",
      "arguments": [
        "(0xf4b63c0363b230d218497ae1abdb841ffa39ebf36ba1c19840ed2e524896bed1, 0x516d4578616d706c654861736800000000000000000000000000000000000000)"
      ],
      "transaction": {
        "from": "0x2b30bc9f81f919b01a09d5a3de574b15eaf2c3bc",
        "to": "0xb1b65d1b309e677352478eb11f65d16b72f176ad",
        "gas": "0xbb57",
        "value": "0x0",
        "input": "0xd9c98087f4b63c0363b230d218497ae1abdb841ffa39ebf36ba1c19840ed2e524896bed1516d4578616d706c654861736800000000000000000000000000000000000000",
        "nonce": "0x4",
        "chainId": "0x190a85c0"
      },
      "additionalContracts": [],
      "isFixedGasLimit": false
    }
  ],
  "receipts": [
    {
      "status": "0x1",
      "cumulativeGasUsed": "0x1e982",
      "logs": [
        {
          "address": "0xb1b65d1b309e677352478eb11f65d16b72f176ad",
          "topics": [
            "0x39f3c4d5c2bbcbf0e3945f22aa618f4e654952eaafcdaa119f0ef12dfce4f2f3"
          ],
          "data": "0xf4b63c0363b230d218497ae1abdb841ffa39ebf36ba1c19840ed2e524896bed1516d4578616d706c654861736800000000000000000000000000000000000000",
          "blockHash": "0x8d643f9f7dbf6bffa66115c12600911bf7d143808bb5efbbc183d9756e33fd8f",
          "blockNumber": "0x18e231",
          "transactionHash": "0xff038ed1b9bf59957f5f39c1a8fc6bc5d7a420f4689bf72ff34193e6ea628846",
          "transactionIndex": "0x2",
          "logIndex": "0x0",
          "removed": false
        }
      ],
      "logsBloom": "0x00000000000000000200000010000000000000000000000000000000000000000000000001000000000000000000000000000000000000000000000000000000000000000000000000000000000000000000000000000000000000000000000000000000000000000000000000000000000000800000000000000000000000000000000000000000000000000000000000000000000000000000000000000000000000000000000000000000000000000000010000000000000000000000000000000800000000000000000000000000000000000000000000000000000000000000000000000000000000000000000000000000000000000000000000000000",
      "type": "0x2",
      "transactionHash": "0xff038ed1b9bf59957f5f39c1a8fc6bc5d7a420f4689bf72ff34193e6ea628846",
      "transactionIndex": "0x2",
      "blockHash": "0x8d643f9f7dbf6bffa66115c12600911bf7d143808bb5efbbc183d9756e33fd8f",
      "blockNumber": "0x18e231",
      "gasUsed": "0x8019",
      "effectiveGasPrice": "0xfd",
      "from": "0x2b30bc9f81f919b01a09d5a3de574b15eaf2c3bc",
      "to": "0xb1b65d1b309e677352478eb11f65d16b72f176ad",
      "contractAddress": null,
      "l1BaseFeeScalar": "0x558",
      "l1BlobBaseFee": "0x1",
      "l1BlobBaseFeeScalar": "0xc5fc5",
      "l1Fee": "0xb55b1e25d",
      "l1GasPrice": "0x52db383e8",
      "l1GasUsed": "0x640"
    }
  ],
  "libraries": [],
  "pending": [],
  "returns": {},
  "timestamp": 1742200691,
  "chain": 420120000,
  "commit": "f3057ee"
}