{
  "transactions": [
    {
      "hash": "0x00985f76f58f169b8e5eb335eccddad6c7683a6284bdfe17a1513eb45eea4e71",
      "transactionType": "CALL",
      "contractName": null,
      "contractAddress": "0xb1b65d1b309e677352478eb11f65d16b72f176ad",
      "function": "updateTree((bytes32,bytes32))",
      "arguments": [
        "(0x47f6aa788302140854ef66f1b9cf83bbbc58bbf7e6f23c4de03b7200525e67c6, 0x516d4578616d706c654861736800000000000000000000000000000000000000)"
      ],
      "transaction": {
        "from": "0x2b30bc9f81f919b01a09d5a3de574b15eaf2c3bc",
        "to": "0xb1b65d1b309e677352478eb11f65d16b72f176ad",
        "gas": "0xb0dd",
        "value": "0x0",
        "input": "0xd9c9808747f6aa788302140854ef66f1b9cf83bbbc58bbf7e6f23c4de03b7200525e67c6516d4578616d706c654861736800000000000000000000000000000000000000",
        "nonce": "0x3",
        "chainId": "0x190a85c0"
      },
      "additionalContracts": [],
      "isFixedGasLimit": false
    }
  ],
  "receipts": [
    {
      "status": "0x1",
      "cumulativeGasUsed": "0x1e976",
      "logs": [
        {
          "address": "0xb1b65d1b309e677352478eb11f65d16b72f176ad",
          "topics": [
            "0x39f3c4d5c2bbcbf0e3945f22aa618f4e654952eaafcdaa119f0ef12dfce4f2f3"
          ],
          "data": "0x47f6aa788302140854ef66f1b9cf83bbbc58bbf7e6f23c4de03b7200525e67c6516d4578616d706c654861736800000000000000000000000000000000000000",
          "blockHash": "0x85eb075000877b4a88f84598042edf1ec6c6dd65ab9e64802780e217868176c1",
          "blockNumber": "0x18e1be",
          "transactionHash": "0x00985f76f58f169b8e5eb335eccddad6c7683a6284bdfe17a1513eb45eea4e71",
          "transactionIndex": "0x2",
          "logIndex": "0x0",
          "removed": false
        }
      ],
      "logsBloom": "0x00000000000000000200000010000000000000000000000000000000000000000000000001000000000000000000000000000000000000000000000000000000000000000000000000000000000000000000000000000000000000000000000000000000000000000000000000000000000000800000000000000000000000000000000000000000000000000000000000000000000000000000000000000000000000000000000000000000000000000000010000000000000000000000000000000800000000000000000000000000000000000000000000000000000000000000000000000000000000000000000000000000000000000000000000000000",
      "type": "0x2",
      "transactionHash": "0x00985f76f58f169b8e5eb335eccddad6c7683a6284bdfe17a1513eb45eea4e71",
      "transactionIndex": "0x2",
      "blockHash": "0x85eb075000877b4a88f84598042edf1ec6c6dd65ab9e64802780e217868176c1",
      "blockNumber": "0x18e1be",
      "gasUsed": "0x800d",
      "effectiveGasPrice": "0xfd",
      "from": "0x2b30bc9f81f919b01a09d5a3de574b15eaf2c3bc",
      "to": "0xb1b65d1b309e677352478eb11f65d16b72f176ad",
      "contractAddress": null,
      "l1BaseFeeScalar": "0x558",
      "l1BlobBaseFee": "0x1",
      "l1BlobBaseFeeScalar": "0xc5fc5",
      "l1Fee": "0x93034123a",
      "l1GasPrice": "0x432a78232",
      "l1GasUsed": "0x640"
    }
  ],
  "libraries": [],
  "pending": [],
  "returns": {},
  "timestamp": 1742200461,
  "chain": 420120000,
  "commit": "f3057ee"
}