{
  "transactions": [
    {
      "hash": "0x188023e1134b81a3fc7e3e113f81f8609db5682046decf6a8b8e7b9f5c27e2fa",
      "transactionType": "CALL",
      "contractName": null,
      "contractAddress": "0x4200000000000000000000000000000000000024",
      "function": "approve(address,uint256)",
      "arguments": [
        "0x4e4077cD98ebd0Ab4f2A034BE823E5943c7fb378",
        "1000000000000000"
      ],
      "transaction": {
        "from": "0xb4e6ee231c86bbccb35935244cbe9ce333d30bdf",
        "to": "0x4200000000000000000000000000000000000024",
        "gas": "0x113d9",
        "value": "0x0",
        "input": "0x095ea7b30000000000000000000000004e4077cd98ebd0ab4f2a034be823e5943c7fb37800000000000000000000000000000000000000000000000000038d7ea4c68000",
        "nonce": "0x3",
        "chainId": "0x190a85c0"
      },
      "additionalContracts": [],
      "isFixedGasLimit": false
    },
    {
      "hash": "0xe728ea2dae4c9db88dddaad74cb9a901224a9be52b0793ddd51ae83fe8a519b5",
      "transactionType": "CALL",
      "contractName": null,
      "contractAddress": "0x4e4077cd98ebd0ab4f2a034be823e5943c7fb378",
      "function": "createCampaign((bytes32,address,address,uint256,uint32,uint32,uint32,bytes))",
      "arguments": [
        "(0x0000000000000000000000000000000000000000000000000000000000000000, 0xB4e6ee231C86bBcCB35935244CBE9cE333D30Bdf, 0x4200000000000000000000000000000000000024, 1000000000000000, 1, 1742189444, 3600, 0x6578616d706c652063616d706169676e2064617461)"
      ],
      "transaction": {
        "from": "0xb4e6ee231c86bbccb35935244cbe9ce333d30bdf",
        "to": "0x4e4077cd98ebd0ab4f2a034be823e5943c7fb378",
        "gas": "0x5b19d",
        "value": "0x0",
        "input": "0xa63f05ad00000000000000000000000000000000000000000000000000000000000000200000000000000000000000000000000000000000000000000000000000000000000000000000000000000000b4e6ee231c86bbccb35935244cbe9ce333d30bdf000000000000000000000000420000000000000000000000000000000000002400000000000000000000000000000000000000000000000000038d7ea4c6800000000000000000000000000000000000000000000000000000000000000000010000000000000000000000000000000000000000000000000000000067d7b3840000000000000000000000000000000000000000000000000000000000000e10000000000000000000000000000000000000000000000000000000000000010000000000000000000000000000000000000000000000000000000000000000156578616d706c652063616d706169676e20646174610000000000000000000000",
        "nonce": "0x4",
        "chainId": "0x190a85c0"
      },
      "additionalContracts": [],
      "isFixedGasLimit": false
    }
  ],
  "receipts": [
    {
      "status": "0x1",
      "cumulativeGasUsed": "0x246db",
      "logs": [
        {
          "address": "0x4200000000000000000000000000000000000024",
          "topics": [
            "0x8c5be1e5ebec7d5bd14f71427d1e84f3dd0314c0f7b2291e5b200ac8c7c3b925",
            "0x000000000000000000000000b4e6ee231c86bbccb35935244cbe9ce333d30bdf",
            "0x0000000000000000000000004e4077cd98ebd0ab4f2a034be823e5943c7fb378"
          ],
          "data": "0x00000000000000000000000000000000000000000000000000038d7ea4c68000",
          "blockHash": "0x4c5ce9df64991f81c886aae32f3a00187b5baa0f4dd1c6b2b2bbc0a4d1f42fe4",
          "blockNumber": "0x18cc42",
          "transactionHash": "0x188023e1134b81a3fc7e3e113f81f8609db5682046decf6a8b8e7b9f5c27e2fa",
          "transactionIndex": "0x2",
          "logIndex": "0x0",
          "removed": false
        }
      ],
      "logsBloom": "0x00000000000000000000000000000000000000000000000000000000000000800000000000000000000000000000000000000000000000000000000000200000000000000000000000000000000000000000000000000000000000000000000000000000000000000000000000000000004000000000000000000000010000000000000000000000020000000004000000000000000000000000000000000000020000000000000000000000000000000000000000000000000000000000000000000000020000000000000000000000000000002000000000000000000000000010000000000000000000000000000000000000000000000000000000001000",
      "type": "0x2",
      "transactionHash": "0x188023e1134b81a3fc7e3e113f81f8609db5682046decf6a8b8e7b9f5c27e2fa",
      "transactionIndex": "0x2",
      "blockHash": "0x4c5ce9df64991f81c886aae32f3a00187b5baa0f4dd1c6b2b2bbc0a4d1f42fe4",
      "blockNumber": "0x18cc42",
      "gasUsed": "0xc7b6",
      "effectiveGasPrice": "0xfd",
      "from": "0xb4e6ee231c86bbccb35935244cbe9ce333d30bdf",
      "to": "0x4200000000000000000000000000000000000024",
      "contractAddress": null,
      "l1BaseFeeScalar": "0x558",
      "l1BlobBaseFee": "0x1",
      "l1BlobBaseFeeScalar": "0xc5fc5",
      "l1Fee": "0xb0d930",
      "l1GasPrice": "0x50cbe1",
      "l1GasUsed": "0x640"
    },
    {
      "status": "0x1",
      "cumulativeGasUsed": "0x62b84",
      "logs": [
        {
          "address": "0x4200000000000000000000000000000000000024",
          "topics": [
            "0xddf252ad1be2c89b69c2b068fc378daa952ba7f163c4a11628f55a4df523b3ef",
            "0x000000000000000000000000b4e6ee231c86bbccb35935244cbe9ce333d30bdf",
            "0x000000000000000000000000b1b65d1b309e677352478eb11f65d16b72f176ad"
          ],
          "data": "0x00000000000000000000000000000000000000000000000000038d7ea4c68000",
          "blockHash": "0x4c5ce9df64991f81c886aae32f3a00187b5baa0f4dd1c6b2b2bbc0a4d1f42fe4",
          "blockNumber": "0x18cc42",
          "transactionHash": "0xe728ea2dae4c9db88dddaad74cb9a901224a9be52b0793ddd51ae83fe8a519b5",
          "transactionIndex": "0x3",
          "logIndex": "0x1",
          "removed": false
        },
        {
          "address": "0x4e4077cd98ebd0ab4f2a034be823e5943c7fb378",
          "topics": [
            "0x6e3c6fa6d4815a856783888c5c3ea2ad7e7303ac0cca66c99f5bd93502c44299"
          ],
          "data": "0x0000000000000000000000000000000000000000000000000000000000000020961cbb7c322f458036ff3e0613ad8a84a82787c9f3a7d220e82cc50aad849bd0000000000000000000000000b4e6ee231c86bbccb35935244cbe9ce333d30bdf000000000000000000000000420000000000000000000000000000000000002400000000000000000000000000000000000000000000000000038d7ea4c6800000000000000000000000000000000000000000000000000000000000000000010000000000000000000000000000000000000000000000000000000067d7b3840000000000000000000000000000000000000000000000000000000000000e10000000000000000000000000000000000000000000000000000000000000010000000000000000000000000000000000000000000000000000000000000000156578616d706c652063616d706169676e20646174610000000000000000000000",
          "blockHash": "0x4c5ce9df64991f81c886aae32f3a00187b5baa0f4dd1c6b2b2bbc0a4d1f42fe4",
          "blockNumber": "0x18cc42",
          "transactionHash": "0xe728ea2dae4c9db88dddaad74cb9a901224a9be52b0793ddd51ae83fe8a519b5",
          "transactionIndex": "0x3",
          "logIndex": "0x2",
          "removed": false
        }
      ],
      "logsBloom": "0x00000000000000000000000000000000000000000000000000010000000000800000000000000000000000000000000000000000000000000000008000000000000000000000001000000008000000000000000000000000000000000000000000000004000000000000000000008000000000000000000000000010000000000000000000000000020000000004000000000000000000000000000000000000000000000000000000000000000000000000000000000000000000000008000000000002020000000000000000000000000000002000000000000000000000000000000000080000000010000000000000000000000000000000000000001080",
      "type": "0x2",
      "transactionHash": "0xe728ea2dae4c9db88dddaad74cb9a901224a9be52b0793ddd51ae83fe8a519b5",
      "transactionIndex": "0x3",
      "blockHash": "0x4c5ce9df64991f81c886aae32f3a00187b5baa0f4dd1c6b2b2bbc0a4d1f42fe4",
      "blockNumber": "0x18cc42",
      "gasUsed": "0x3e4a9",
      "effectiveGasPrice": "0xfd",
      "from": "0xb4e6ee231c86bbccb35935244cbe9ce333d30bdf",
      "to": "0x4e4077cd98ebd0ab4f2a034be823e5943c7fb378",
      "contractAddress": null,
      "l1BaseFeeScalar": "0x558",
      "l1BlobBaseFee": "0x1",
      "l1BlobBaseFeeScalar": "0xc5fc5",
      "l1Fee": "0x11c2aba",
      "l1GasPrice": "0x50cbe1",
      "l1GasUsed": "0xa0a"
    }
  ],
  "libraries": [],
  "pending": [],
  "returns": {},
  "timestamp": 1742189462,
  "chain": 420120000,
  "commit": "f3057ee"
}