{
  "transactions": [
    {
      "hash": "0x36e7d2c62c475c5ee07bf8110892c16f25a7f86f8caac28bfd5ba9d1df5f4067",
      "transactionType": "CALL",
      "contractName": null,
      "contractAddress": "0xb1b65d1b309e677352478eb11f65d16b72f176ad",
      "function": "claim((address[],address[],uint256[],bytes32[][],address[],uint256[]))",
      "arguments": [
        "([0x18e23191359F9Dc403Ba2942b87a896535c935C4], [0x4200000000000000000000000000000000000024], [10000000000000], [[0x640b9d8fd6aa01dababa3ad64f0b999a20427de7991653763cabbb1249eae0b4, 0x999130c3e489ed065424901ebdb1dd339099a4829e5cd52540f1815df18f82d6]], [0x18e23191359F9Dc403Ba2942b87a896535c935C4], [420120000])"
      ],
      "transaction": {
        "from": "0x18e23191359f9dc403ba2942b87a896535c935c4",
        "to": "0xb1b65d1b309e677352478eb11f65d16b72f176ad",
        "gas": "0x11d9d",
        "value": "0x0",
        "input": "0x5d0520cd000000000000000000000000000000000000000000000000000000000000002000000000000000000000000000000000000000000000000000000000000000c000000000000000000000000000000000000000000000000000000000000001000000000000000000000000000000000000000000000000000000000000000140000000000000000000000000000000000000000000000000000000000000018000000000000000000000000000000000000000000000000000000000000002200000000000000000000000000000000000000000000000000000000000000260000000000000000000000000000000000000000000000000000000000000000100000000000000000000000018e23191359f9dc403ba2942b87a896535c935c4000000000000000000000000000000000000000000000000000000000000000100000000000000000000000042000000000000000000000000000000000000240000000000000000000000000000000000000000000000000000000000000001000000000000000000000000000000000000000000000000000009184e72a000000000000000000000000000000000000000000000000000000000000000000100000000000000000000000000000000000000000000000000000000000000200000000000000000000000000000000000000000000000000000000000000002640b9d8fd6aa01dababa3ad64f0b999a20427de7991653763cabbb1249eae0b4999130c3e489ed065424901ebdb1dd339099a4829e5cd52540f1815df18f82d6000000000000000000000000000000000000000000000000000000000000000100000000000000000000000018e23191359f9dc403ba2942b87a896535c935c4000000000000000000000000000000000000000000000000000000000000000100000000000000000000000000000000000000000000000000000000190a85c0",
        "nonce": "0x1",
        "chainId": "0x190a85c0"
      },
      "additionalContracts": [],
      "isFixedGasLimit": false
    }
  ],
  "receipts": [
    {
      "status": "0x1",
      "cumulativeGasUsed": "0x22cb4",
      "logs": [
        {
          "address": "0xb1b65d1b309e677352478eb11f65d16b72f176ad",
          "topics": [
            "0xd2374779eb08e31ce8d76174da84d8bde179648c7c6e1926318b82b824fa1a30"
          ],
          "data": "0x6930cb181d3416e105444f3574d7539784b9f2d98783d858ae661af9ebfa8519",
          "blockHash": "0x6f04515dd9ab5b08477ab00817bfba61c6b2893dfce242df8ef9e803e6d0dd1a",
          "blockNumber": "0x18e0f2",
          "transactionHash": "0x36e7d2c62c475c5ee07bf8110892c16f25a7f86f8caac28bfd5ba9d1df5f4067",
          "transactionIndex": "0x2",
          "logIndex": "0x0",
          "removed": false
        },
        {
          "address": "0xb1b65d1b309e677352478eb11f65d16b72f176ad",
          "topics": [
            "0x46c48a463bad5331dafa403a39a613f10a4b8c431b361b44c5a14b4633a72983"
          ],
          "data": "0x00000000000000000000000000000000000000000000000000000000000000200000000000000000000000000000000000000000000000000000000000000002640b9d8fd6aa01dababa3ad64f0b999a20427de7991653763cabbb1249eae0b4999130c3e489ed065424901ebdb1dd339099a4829e5cd52540f1815df18f82d6",
          "blockHash": "0x6f04515dd9ab5b08477ab00817bfba61c6b2893dfce242df8ef9e803e6d0dd1a",
          "blockNumber": "0x18e0f2",
          "transactionHash": "0x36e7d2c62c475c5ee07bf8110892c16f25a7f86f8caac28bfd5ba9d1df5f4067",
          "transactionIndex": "0x2",
          "logIndex": "0x1",
          "removed": false
        },
        {
          "address": "0xb1b65d1b309e677352478eb11f65d16b72f176ad",
          "topics": [
            "0x2621c2d32219763312b4e5a710cc99559c22056773c1899150c539622ad655eb"
          ],
          "data": "0xe54b28f216ad90809be86bc7e52824a213a64c7f823e4e9207748f10bd94ef6d",
          "blockHash": "0x6f04515dd9ab5b08477ab00817bfba61c6b2893dfce242df8ef9e803e6d0dd1a",
          "blockNumber": "0x18e0f2",
          "transactionHash": "0x36e7d2c62c475c5ee07bf8110892c16f25a7f86f8caac28bfd5ba9d1df5f4067",
          "transactionIndex": "0x2",
          "logIndex": "0x2",
          "removed": false
        },
        {
          "address": "0xb1b65d1b309e677352478eb11f65d16b72f176ad",
          "topics": [
            "0x2c1964c0867a53870dd012ba7f9876611310d05ef853b321df851f8ac787205c"
          ],
          "data": "0xe54b28f216ad90809be86bc7e52824a213a64c7f823e4e9207748f10bd94ef6d",
          "blockHash": "0x6f04515dd9ab5b08477ab00817bfba61c6b2893dfce242df8ef9e803e6d0dd1a",
          "blockNumber": "0x18e0f2",
          "transactionHash": "0x36e7d2c62c475c5ee07bf8110892c16f25a7f86f8caac28bfd5ba9d1df5f4067",
          "transactionIndex": "0x2",
          "logIndex": "0x3",
          "removed": false
        },
        {
          "address": "0xb1b65d1b309e677352478eb11f65d16b72f176ad",
          "topics": [
            "0xf7a40077ff7a04c7e61f6f26fb13774259ddf1b6bce9ecf26a8276cdd3992683",
            "0x00000000000000000000000018e23191359f9dc403ba2942b87a896535c935c4",
            "0x0000000000000000000000004200000000000000000000000000000000000024"
          ],
          "data": "0x0000000000000000000000000000000000000000000000000000000000000000",
          "blockHash": "0x6f04515dd9ab5b08477ab00817bfba61c6b2893dfce242df8ef9e803e6d0dd1a",
          "blockNumber": "0x18e0f2",
          "transactionHash": "0x36e7d2c62c475c5ee07bf8110892c16f25a7f86f8caac28bfd5ba9d1df5f4067",
          "transactionIndex": "0x2",
          "logIndex": "0x4",
          "removed": false
        }
      ],
      "logsBloom": "0x00000000000000000000000000000000000000000000000000000000000000000000000041000000002000000000000200000002000000088000000000000000000000000000000000000000000000000000000000000000000000000000000000000008000000000004000000000000000000000000000001000000000000104000000020000000000000000000000000000000000000000000000000000000000000000000000000000000000000000000010000000000000000008000000000000800000000000000800000000000000002100000000002000000000000000000000000010000000000010000000000040000000000000000000000000040",
      "type": "0x2",
      "transactionHash": "0x36e7d2c62c475c5ee07bf8110892c16f25a7f86f8caac28bfd5ba9d1df5f4067",
      "transactionIndex": "0x2",
      "blockHash": "0x6f04515dd9ab5b08477ab00817bfba61c6b2893dfce242df8ef9e803e6d0dd1a",
      "blockNumber": "0x18e0f2",
      "gasUsed": "0xc34b",
      "effectiveGasPrice": "0xfd",
      "from": "0x18e23191359f9dc403ba2942b87a896535c935c4",
      "to": "0xb1b65d1b309e677352478eb11f65d16b72f176ad",
      "contractAddress": null,
      "l1BaseFeeScalar": "0x558",
      "l1BlobBaseFee": "0x1",
      "l1BlobBaseFeeScalar": "0xc5fc5",
      "l1Fee": "0x11b2487492",
      "l1GasPrice": "0x37364ed34",
      "l1GasUsed": "0xea4"
    }
  ],
  "libraries": [],
  "pending": [],
  "returns": {},
  "timestamp": 1742200053,
  "chain": 420120000,
  "commit": "f3057ee"
}