{
  "transactions": [
    {
      "hash": "0x8273f223fedd25286a8c88e4b456976ce0bd9cc870c76910b5c4c0baef1afb3b",
      "transactionType": "CALL",
      "contractName": null,
      "contractAddress": "0xb1b65d1b309e677352478eb11f65d16b72f176ad",
      "function": "claim((address[],address[],uint256[],bytes32[][],address[],uint256[]))",
      "arguments": [
        "([0x18e23191359F9Dc403Ba2942b87a896535c935C4], [0x4200000000000000000000000000000000000024], [30000000000000], [[0x640b9d8fd6aa01dababa3ad64f0b999a20427de7991653763cabbb1249eae0b4]], [0x18e23191359F9Dc403Ba2942b87a896535c935C4], [420120000])"
      ],
      "transaction": {
        "from": "0x18e23191359f9dc403ba2942b87a896535c935c4",
        "to": "0xb1b65d1b309e677352478eb11f65d16b72f176ad",
        "gas": "0x21546",
        "value": "0x0",
        "input": "0x5d0520cd000000000000000000000000000000000000000000000000000000000000002000000000000000000000000000000000000000000000000000000000000000c000000000000000000000000000000000000000000000000000000000000001000000000000000000000000000000000000000000000000000000000000000140000000000000000000000000000000000000000000000000000000000000018000000000000000000000000000000000000000000000000000000000000002000000000000000000000000000000000000000000000000000000000000000240000000000000000000000000000000000000000000000000000000000000000100000000000000000000000018e23191359f9dc403ba2942b87a896535c935c400000000000000000000000000000000000000000000000000000000000000010000000000000000000000004200000000000000000000000000000000000024000000000000000000000000000000000000000000000000000000000000000100000000000000000000000000000000000000000000000000001b48eb57e000000000000000000000000000000000000000000000000000000000000000000100000000000000000000000000000000000000000000000000000000000000200000000000000000000000000000000000000000000000000000000000000001640b9d8fd6aa01dababa3ad64f0b999a20427de7991653763cabbb1249eae0b4000000000000000000000000000000000000000000000000000000000000000100000000000000000000000018e23191359f9dc403ba2942b87a896535c935c4000000000000000000000000000000000000000000000000000000000000000100000000000000000000000000000000000000000000000000000000190a85c0",
        "nonce": "0x2",
        "chainId": "0x190a85c0"
      },
      "additionalContracts": [],
      "isFixedGasLimit": false
    }
  ],
  "receipts": [
    {
      "status": "0x1",
      "cumulativeGasUsed": "0x2eb7e",
      "logs": [
        {
          "address": "0xb1b65d1b309e677352478eb11f65d16b72f176ad",
          "topics": [
            "0xd2374779eb08e31ce8d76174da84d8bde179648c7c6e1926318b82b824fa1a30"
          ],
          "data": "0xee6660fc0ae29cae149122178dcb4d93dab9a24196e01e253f9c402a78a8b0d1",
          "blockHash": "0x47e52699d56b4ec8b387ef771a543416641ed59f2d151050ba62577eca76183f",
          "blockNumber": "0x18e1e9",
          "transactionHash": "0x8273f223fedd25286a8c88e4b456976ce0bd9cc870c76910b5c4c0baef1afb3b",
          "transactionIndex": "0x2",
          "logIndex": "0x0",
          "removed": false
        },
        {
          "address": "0xb1b65d1b309e677352478eb11f65d16b72f176ad",
          "topics": [
            "0x46c48a463bad5331dafa403a39a613f10a4b8c431b361b44c5a14b4633a72983"
          ],
          "data": "0x00000000000000000000000000000000000000000000000000000000000000200000000000000000000000000000000000000000000000000000000000000001640b9d8fd6aa01dababa3ad64f0b999a20427de7991653763cabbb1249eae0b4",
          "blockHash": "0x47e52699d56b4ec8b387ef771a543416641ed59f2d151050ba62577eca76183f",
          "blockNumber": "0x18e1e9",
          "transactionHash": "0x8273f223fedd25286a8c88e4b456976ce0bd9cc870c76910b5c4c0baef1afb3b",
          "transactionIndex": "0x2",
          "logIndex": "0x1",
          "removed": false
        },
        {
          "address": "0xb1b65d1b309e677352478eb11f65d16b72f176ad",
          "topics": [
            "0x2621c2d32219763312b4e5a710cc99559c22056773c1899150c539622ad655eb"
          ],
          "data": "0x47f6aa788302140854ef66f1b9cf83bbbc58bbf7e6f23c4de03b7200525e67c6",
          "blockHash": "0x47e52699d56b4ec8b387ef771a543416641ed59f2d151050ba62577eca76183f",
          "blockNumber": "0x18e1e9",
          "transactionHash": "0x8273f223fedd25286a8c88e4b456976ce0bd9cc870c76910b5c4c0baef1afb3b",
          "transactionIndex": "0x2",
          "logIndex": "0x2",
          "removed": false
        },
        {
          "address": "0xb1b65d1b309e677352478eb11f65d16b72f176ad",
          "topics": [
            "0x2c1964c0867a53870dd012ba7f9876611310d05ef853b321df851f8ac787205c"
          ],
          "data": "0x47f6aa788302140854ef66f1b9cf83bbbc58bbf7e6f23c4de03b7200525e67c6",
          "blockHash": "0x47e52699d56b4ec8b387ef771a543416641ed59f2d151050ba62577eca76183f",
          "blockNumber": "0x18e1e9",
          "transactionHash": "0x8273f223fedd25286a8c88e4b456976ce0bd9cc870c76910b5c4c0baef1afb3b",
          "transactionIndex": "0x2",
          "logIndex": "0x3",
          "removed": false
        },
        {
          "address": "0xb1b65d1b309e677352478eb11f65d16b72f176ad",
          "topics": [
            "0xf7a40077ff7a04c7e61f6f26fb13774259ddf1b6bce9ecf26a8276cdd3992683",
            "0x00000000000000000000000018e23191359f9dc403ba2942b87a896535c935c4",
            "0x0000000000000000000000004200000000000000000000000000000000000024"
          ],
          "data": "0x000000000000000000000000000000000000000000000000000012309ce54000",
          "blockHash": "0x47e52699d56b4ec8b387ef771a543416641ed59f2d151050ba62577eca76183f",
          "blockNumber": "0x18e1e9",
          "transactionHash": "0x8273f223fedd25286a8c88e4b456976ce0bd9cc870c76910b5c4c0baef1afb3b",
          "transactionIndex": "0x2",
          "logIndex": "0x4",
          "removed": false
        },
        {
          "address": "0xb1b65d1b309e677352478eb11f65d16b72f176ad",
          "topics": [
            "0x7c4b3ebe24b67f845d481885128ad41f55e5d927e00e2573453e1a8cf437b75c"
          ],
          "data": "0x000000000000000000000000000000000000000000000000000384665653e000",
          "blockHash": "0x47e52699d56b4ec8b387ef771a543416641ed59f2d151050ba62577eca76183f",
          "blockNumber": "0x18e1e9",
          "transactionHash": "0x8273f223fedd25286a8c88e4b456976ce0bd9cc870c76910b5c4c0baef1afb3b",
          "transactionIndex": "0x2",
          "logIndex": "0x5",
          "removed": false
        },
        {
          "address": "0x4200000000000000000000000000000000000024",
          "topics": [
            "0xddf252ad1be2c89b69c2b068fc378daa952ba7f163c4a11628f55a4df523b3ef",
            "0x000000000000000000000000b1b65d1b309e677352478eb11f65d16b72f176ad",
            "0x00000000000000000000000018e23191359f9dc403ba2942b87a896535c935c4"
          ],
          "data": "0x000000000000000000000000000000000000000000000000000012309ce54000",
          "blockHash": "0x47e52699d56b4ec8b387ef771a543416641ed59f2d151050ba62577eca76183f",
          "blockNumber": "0x18e1e9",
          "transactionHash": "0x8273f223fedd25286a8c88e4b456976ce0bd9cc870c76910b5c4c0baef1afb3b",
          "transactionIndex": "0x2",
          "logIndex": "0x6",
          "removed": false
        }
      ],
      "logsBloom": "0x000000000000000000000000000000000000000000000000000100000000008000000000410000000020000000000002000000020000000880000000000000000000000000000010000000080000000000000000000000000000000000000000000000080000000000040000000000000000000000000000010000100000001040000000201000000200000000040000020000000000000000000000000000020000000000000000000000000000000000000100000000000000000080000000000008020000000000008000000000000000021000000000020000000000000000000000000100000000000100000000000400000000000000000000000000c0",
      "type": "0x2",
      "transactionHash": "0x8273f223fedd25286a8c88e4b456976ce0bd9cc870c76910b5c4c0baef1afb3b",
      "transactionIndex": "0x2",
      "blockHash": "0x47e52699d56b4ec8b387ef771a543416641ed59f2d151050ba62577eca76183f",
      "blockNumber": "0x18e1e9",
      "gasUsed": "0x18215",
      "effectiveGasPrice": "0xfd",
      "from": "0x18e23191359f9dc403ba2942b87a896535c935c4",
      "to": "0xb1b65d1b309e677352478eb11f65d16b72f176ad",
      "contractAddress": null,
      "l1BaseFeeScalar": "0x558",
      "l1BlobBaseFee": "0x1",
      "l1BlobBaseFeeScalar": "0xc5fc5",
      "l1Fee": "0x149881e0d8",
      "l1GasPrice": "0x4a09d1cfa",
      "l1GasUsed": "0xcb5"
    }
  ],
  "libraries": [],
  "pending": [],
  "returns": {},
  "timestamp": 1742200547,
  "chain": 420120000,
  "commit": "f3057ee"
}