{
  "transactions": [
    {
      "hash": "0x1edb26322a2c4457069bcd19719535c60ea61c9fcd17ea589126336da4f78689",
      "transactionType": "CALL",
      "contractName": null,
      "contractAddress": "0xb1b65d1b309e677352478eb11f65d16b72f176ad",
      "function": "claim((address[],address[],uint256[],bytes32[][],address[],uint256[]))",
      "arguments": [
        "([0x18e23191359F9Dc403Ba2942b87a896535c935C4], [0x4200000000000000000000000000000000000024], [50000000000000], [[0x640b9d8fd6aa01dababa3ad64f0b999a20427de7991653763cabbb1249eae0b4]], [0x18e23191359F9Dc403Ba2942b87a896535c935C4], [420120001])"
      ],
      "transaction": {
        "from": "0x18e23191359f9dc403ba2942b87a896535c935c4",
        "to": "0xb1b65d1b309e677352478eb11f65d16b72f176ad",
        "gas": "0x272f4",
        "value": "0x0",
        "input": "0x5d0520cd000000000000000000000000000000000000000000000000000000000000002000000000000000000000000000000000000000000000000000000000000000c000000000000000000000000000000000000000000000000000000000000001000000000000000000000000000000000000000000000000000000000000000140000000000000000000000000000000000000000000000000000000000000018000000000000000000000000000000000000000000000000000000000000002000000000000000000000000000000000000000000000000000000000000000240000000000000000000000000000000000000000000000000000000000000000100000000000000000000000018e23191359f9dc403ba2942b87a896535c935c400000000000000000000000000000000000000000000000000000000000000010000000000000000000000004200000000000000000000000000000000000024000000000000000000000000000000000000000000000000000000000000000100000000000000000000000000000000000000000000000000002d79883d2000000000000000000000000000000000000000000000000000000000000000000100000000000000000000000000000000000000000000000000000000000000200000000000000000000000000000000000000000000000000000000000000001640b9d8fd6aa01dababa3ad64f0b999a20427de7991653763cabbb1249eae0b4000000000000000000000000000000000000000000000000000000000000000100000000000000000000000018e23191359f9dc403ba2942b87a896535c935c4000000000000000000000000000000000000000000000000000000000000000100000000000000000000000000000000000000000000000000000000190a85c1",
        "nonce": "0x3",
        "chainId": "0x190a85c0"
      },
      "additionalContracts": [],
      "isFixedGasLimit": false
    }
  ],
  "receipts": [
    {
      "status": "0x1",
      "cumulativeGasUsed": "0x32f51",
      "logs": [
        {
          "address": "0xb1b65d1b309e677352478eb11f65d16b72f176ad",
          "topics": [
            "0xd2374779eb08e31ce8d76174da84d8bde179648c7c6e1926318b82b824fa1a30"
          ],
          "data": "0x7b95514607004c36014414d875dbe1937dd7588ed89b9287e508fb8e89e15ced",
          "blockHash": "0x24586be37c5332138c47fddef4f63f7c389044c0c4841da2da711002d539dbcf",
          "blockNumber": "0x18e24b",
          "transactionHash": "0x1edb26322a2c4457069bcd19719535c60ea61c9fcd17ea589126336da4f78689",
          "transactionIndex": "0x2",
          "logIndex": "0x0",
          "removed": false
        },
        {
          "address": "0xb1b65d1b309e677352478eb11f65d16b72f176ad",
          "topics": [
            "0x46c48a463bad5331dafa403a39a613f10a4b8c431b361b44c5a14b4633a72983"
          ],
          "data": "0x00000000000000000000000000000000000000000000000000000000000000200000000000000000000000000000000000000000000000000000000000000001640b9d8fd6aa01dababa3ad64f0b999a20427de7991653763cabbb1249eae0b4",
          "blockHash": "0x24586be37c5332138c47fddef4f63f7c389044c0c4841da2da711002d539dbcf",
          "blockNumber": "0x18e24b",
          "transactionHash": "0x1edb26322a2c4457069bcd19719535c60ea61c9fcd17ea589126336da4f78689",
          "transactionIndex": "0x2",
          "logIndex": "0x1",
          "removed": false
        },
        {
          "address": "0xb1b65d1b309e677352478eb11f65d16b72f176ad",
          "topics": [
            "0x2621c2d32219763312b4e5a710cc99559c22056773c1899150c539622ad655eb"
          ],
          "data": "0xf4b63c0363b230d218497ae1abdb841ffa39ebf36ba1c19840ed2e524896bed1",
          "blockHash": "0x24586be37c5332138c47fddef4f63f7c389044c0c4841da2da711002d539dbcf",
          "blockNumber": "0x18e24b",
          "transactionHash": "0x1edb26322a2c4457069bcd19719535c60ea61c9fcd17ea589126336da4f78689",
          "transactionIndex": "0x2",
          "logIndex": "0x2",
          "removed": false
        },
        {
          "address": "0xb1b65d1b309e677352478eb11f65d16b72f176ad",
          "topics": [
            "0x2c1964c0867a53870dd012ba7f9876611310d05ef853b321df851f8ac787205c"
          ],
          "data": "0xf4b63c0363b230d218497ae1abdb841ffa39ebf36ba1c19840ed2e524896bed1",
          "blockHash": "0x24586be37c5332138c47fddef4f63f7c389044c0c4841da2da711002d539dbcf",
          "blockNumber": "0x18e24b",
          "transactionHash": "0x1edb26322a2c4457069bcd19719535c60ea61c9fcd17ea589126336da4f78689",
          "transactionIndex": "0x2",
          "logIndex": "0x3",
          "removed": false
        },
        {
          "address": "0xb1b65d1b309e677352478eb11f65d16b72f176ad",
          "topics": [
            "0xf7a40077ff7a04c7e61f6f26fb13774259ddf1b6bce9ecf26a8276cdd3992683",
            "0x00000000000000000000000018e23191359f9dc403ba2942b87a896535c935c4",
            "0x0000000000000000000000004200000000000000000000000000000000000024"
          ],
          "data": "0x000000000000000000000000000000000000000000000000000012309ce54000",
          "blockHash": "0x24586be37c5332138c47fddef4f63f7c389044c0c4841da2da711002d539dbcf",
          "blockNumber": "0x18e24b",
          "transactionHash": "0x1edb26322a2c4457069bcd19719535c60ea61c9fcd17ea589126336da4f78689",
          "transactionIndex": "0x2",
          "logIndex": "0x4",
          "removed": false
        },
        {
          "address": "0x4200000000000000000000000000000000000024",
          "topics": [
            "0xddf252ad1be2c89b69c2b068fc378daa952ba7f163c4a11628f55a4df523b3ef",
            "0x000000000000000000000000b1b65d1b309e677352478eb11f65d16b72f176ad",
            "0x0000000000000000000000000000000000000000000000000000000000000000"
          ],
          "data": "0x000000000000000000000000000000000000000000000000000012309ce54000",
          "blockHash": "0x24586be37c5332138c47fddef4f63f7c389044c0c4841da2da711002d539dbcf",
          "blockNumber": "0x18e24b",
          "transactionHash": "0x1edb26322a2c4457069bcd19719535c60ea61c9fcd17ea589126336da4f78689",
          "transactionIndex": "0x2",
          "logIndex": "0x5",
          "removed": false
        },
        {
          "address": "0x4200000000000000000000000000000000000025",
          "topics": [
            "0x875e07afd7ce17c6531b1a6b7b34829dcd8b7e6639448afbd6a8e29fa1422b82",
            "0x0000000000000000000000004200000000000000000000000000000000000024"
          ],
          "data": "0x000000000000000000000000000000000000000000000000000012309ce54000",
          "blockHash": "0x24586be37c5332138c47fddef4f63f7c389044c0c4841da2da711002d539dbcf",
          "blockNumber": "0x18e24b",
          "transactionHash": "0x1edb26322a2c4457069bcd19719535c60ea61c9fcd17ea589126336da4f78689",
          "transactionIndex": "0x2",
          "logIndex": "0x6",
          "removed": false
        },
        {
          "address": "0x4200000000000000000000000000000000000024",
          "topics": [
            "0xb90795a66650155983e242cac3e1ac1a4dc26f8ed2987f3ce416a34e00111fd4",
            "0x000000000000000000000000b1b65d1b309e677352478eb11f65d16b72f176ad",
            "0x0000000000000000000000004200000000000000000000000000000000000028"
          ],
          "data": "0x000000000000000000000000000000000000000000000000000012309ce54000",
          "blockHash": "0x24586be37c5332138c47fddef4f63f7c389044c0c4841da2da711002d539dbcf",
          "blockNumber": "0x18e24b",
          "transactionHash": "0x1edb26322a2c4457069bcd19719535c60ea61c9fcd17ea589126336da4f78689",
          "transactionIndex": "0x2",
          "logIndex": "0x7",
          "removed": false
        },
        {
          "address": "0x4200000000000000000000000000000000000023",
          "topics": [
            "0x382409ac69001e11931a28435afef442cbfd20d9891907e8fa373ba7d351f320",
            "0x00000000000000000000000000000000000000000000000000000000190a85c1",
            "0x0000000000000000000000004200000000000000000000000000000000000028",
            "0x0000000000000000000000000000000000000000000000000000000000000440"
          ],
          "data": "0x0000000000000000000000004200000000000000000000000000000000000028000000000000000000000000000000000000000000000000000000000000004000000000000000000000000000000000000000000000000000000000000000847cfd6dbc0000000000000000000000004200000000000000000000000000000000000024000000000000000000000000b1b65d1b309e677352478eb11f65d16b72f176ad00000000000000000000000018e23191359f9dc403ba2942b87a896535c935c4000000000000000000000000000000000000000000000000000012309ce5400000000000000000000000000000000000000000000000000000000000",
          "blockHash": "0x24586be37c5332138c47fddef4f63f7c389044c0c4841da2da711002d539dbcf",
          "blockNumber": "0x18e24b",
          "transactionHash": "0x1edb26322a2c4457069bcd19719535c60ea61c9fcd17ea589126336da4f78689",
          "transactionIndex": "0x2",
          "logIndex": "0x8",
          "removed": false
        },
        {
          "address": "0x4200000000000000000000000000000000000028",
          "topics": [
            "0x0247bfe63a1aaa59e073e20b172889babfda8d3273b5798e0e9ac4388e6dd11c",
            "0x0000000000000000000000004200000000000000000000000000000000000024",
            "0x000000000000000000000000b1b65d1b309e677352478eb11f65d16b72f176ad",
            "0x00000000000000000000000018e23191359f9dc403ba2942b87a896535c935c4"
          ],
          "data": "0x000000000000000000000000000000000000000000000000000012309ce5400000000000000000000000000000000000000000000000000000000000190a85c1",
          "blockHash": "0x24586be37c5332138c47fddef4f63f7c389044c0c4841da2da711002d539dbcf",
          "blockNumber": "0x18e24b",
          "transactionHash": "0x1edb26322a2c4457069bcd19719535c60ea61c9fcd17ea589126336da4f78689",
          "transactionIndex": "0x2",
          "logIndex": "0x9",
          "removed": false
        }
      ],
      "logsBloom": "0x200080000008000000000000000000000000000000000000000100000002008000000000410000000024000000000002002000020000000880080000000000000000000000000010020000080000000000000000000001040000000000000000000022080200000000040000000009000000000020000800410000100000001040100000200000000200000000040000000000000000000000000100000000000400000000000000000000000000000000000100000000000000000080000008000008020000080000008000000000000000021000000000120000000000200200000080000920000800000100000000000500000000000000000000000000c0",
      "type": "0x2",
      "transactionHash": "0x1edb26322a2c4457069bcd19719535c60ea61c9fcd17ea589126336da4f78689",
      "transactionIndex": "0x2",
      "blockHash": "0x24586be37c5332138c47fddef4f63f7c389044c0c4841da2da711002d539dbcf",
      "blockNumber": "0x18e24b",
      "gasUsed": "0x1c5e8",
      "effectiveGasPrice": "0xfd",
      "from": "0x18e23191359f9dc403ba2942b87a896535c935c4",
      "to": "0xb1b65d1b309e677352478eb11f65d16b72f176ad",
      "contractAddress": null,
      "l1BaseFeeScalar": "0x558",
      "l1BlobBaseFee": "0x1",
      "l1BlobBaseFeeScalar": "0xc5fc5",
      "l1Fee": "0x13df26f7c6",
      "l1GasPrice": "0x485401434",
      "l1GasUsed": "0xc8d"
    }
  ],
  "libraries": [],
  "pending": [],
  "returns": {},
  "timestamp": 1742200744,
  "chain": 420120000,
  "commit": "f3057ee"
}